:1000000012C021C020C01FC01EC01DC01CC01BC00C
:100010001AC01AC018C017C016C015C014C013C02B
:1000200012C011C010C011241FBECFE5D4E0DEBF46
:10003000CDBF12E0A0E6B0E001C01D92AE36B10720
:10004000E1F7D9D0C6C1DCCF1F920F920FB60F9245
:1000500011248F939F93EF93FF938091600082BF51
:1000600080916D0282BB80916A02813800F190918B
:100070006B02809169028923B1F182B3846080931D
:100080006D0280916B02869580936B0289EF80935D
:10009000600080916A02815080936A02FF91EF9123
:1000A0009F918F910F900FBE0F901F901895809188
:1000B0006A028038E9F080916A02803109F445C013
:1000C00080916A028034B1F18CED80936000809160
:1000D0006A02803219F782B38C6080936D0280E1EE
:1000E00080936A02DBCF82B38B7F80936D02C9CF8E
:1000F00082B3846080936D028FEE80936000809164
:10010000670290916802019790936802809367025A
:100110008091670290916802892B09F780916100B4
:1001200090916200909368028093670280E48093CC
:100130006A02B4CF82B38B7F80936D0284E1809397
:10014000600080E280936A02A9CF82B3837F8093AC
:100150006D0289EF8093600088E880936A02E091E5
:100160006100F09162008091670290916802E81B43
:10017000F90BED59FF4F808180936B028FCF88E19F
:100180008AB980B5866880BD10BC8AE089B90895B7
:1001900089B7816089BF83B7826083BF12BE08952B
:1001A0008CE082BB10926A0210926B0281E092E0B6
:1001B000909362008093610081E0809369021092C5
:1001C0006402109266021092650210926C0281E045
:1001D00090E0FC01ED59FF4F1082019622E0813042
:1001E0009207B9F708955F9BFECF8CB108955D9B90
:1001F000FECF8CB90895BF92CF92DF92EF92FF921B
:100200000F931F93CF93DF938CE081BB89B78160FD
:1002100089BF83B7826083BF12BE88E18AB980B587
:10022000866880BD10BC8AE089B9BADF80E180931E
:100230006A0281E092E0909362008093610078947A
:1002400080916C0232EC46EA54EA64E174E5A3E57D
:10025000BEEC10E101E09CECF92EFAECEF2EE3EAA3
:10026000DE2E2CE0C22EC1E0D2E092EAB92E5F9BD6
:10027000FECF5F9BFECF2CB12234F1F0263231F15C
:10028000283449F1293499F12432E9F1223209F470
:1002900068C02A3409F46CC02C3409F470C02434CA
:1002A00009F474C0263409F475C02E34E9F12F34F2
:1002B00009F448C0822FDBCF5F9BFECF8CB18093C7
:1002C00063005D9BFECF3CB9822FD1CF5D9BFECFFB
:1002D0004CB9822FCCCF5F9BFECFECB15F9BFECFA2
:1002E0008CB1F0E0EC59FF4F8083822FC0CF5F9B31
:1002F000FECFECB15F9BFECF8CB1F0E0EC59FE4F2E
:100300008083822FB4CF5D9BFECF5CB95D9BFECF17
:100310006CB95D9BFECF7CB95D9BFECFACB95D9B9C
:10032000FECF1CB8822FA3CF5F9BFECF8CB190E095
:10033000019690936200809361005D9BFECFBCB9F3
:10034000822F95CF5F9BFECF8CB190E08F5F9E4F49
:1003500090936200809361005D9BFECFBCB9822FB9
:1003600086CF8632D9F05D9BFECFDCB882E27FCFAC
:10037000109269025D9BFECFECB88AE478CF0093BF
:1003800069025D9BFECFFCB88CE471CF10936A02CA
:10039000822F6DCF10926A0286E469CFC2BA1092A2
:1003A0006A0210926B02D0936200C09361000093C6
:1003B000690281E090E0FC01ED59FF4F1082019647
:1003C00022E081309207B9F75D9BFECFBCB880E098
:0603D0004ECFF894FFCFB0
:00000001FF
